:030000000209539F
:0C095300787FE4F6D8FD75810C020800E6
:10088D00202044524F575359204452495645522027
:10089D002000444554454354494E47205359535421
:1008AD00454D0020204452495645522020495320A1
:1008BD0020002020534C454550494E472E2E2E2EBC
:1008CD00202000445249564552204953204E4F5442
:0D08DD002000534C454550494E4720200057
:0608EA008FA0D2B67F0AC8
:1008F000E4FDFCEFFBC3ED9B7480F86C985015E4AD
:10090000FBFA0BBB00010ABA03F8BBE9F50DBD0009
:04091000010C80DF77
:0109140022C0
:08095F00C2B71208EAC2B62279
:08096700D2B71208EAC2B62261
:100915008B088A09890AAB08AA09A90A12093A604B
:1009250013050AE50A7002050914F912093AFF12BE
:05093500096780E222C9
:10080000C292C293C294C295C2917F3812095F7F8F
:100810000E12095F7F8012095F7BFF7A08798D12C3
:1008200009157FC012095F7BFF7A08799F120915AD
:100830007FF41208F07F0112095F209028D291C244
:1008400092C293C294C2957F8012095F7BFF7A089F
:1008500079B01209157FC012095F7BFF7A0879BF52
:1008600012091580D5C291D292C293D294C2957FBB
:100870008012095F7BFF7A0879D01209157FC012B8
:0D088000095F7BFF7A0879DF12091580AD52
:10093A00BB010689828A83E0225002E722BBFE02BB
:09094A00E32289828A83E49322EE
:00000001FF
